:020000040800F2
:10000000A007002045010008730900086B090008DB
:100010006F090008D70200087114000800000000F2
:100020000000000000000000000000008D0C00082F
:100030000103000800000000550B0008E90D00084E
:100040005F0100085F0100085F0100085F01000810
:100050005F0100085F0100085F0100085F01000800
:100060005F0100085F0100085F0100085F010008F0
:100070005F0100085F0100085F0100085F010008E0
:100080005F0100085F0100085F0100085F010008D0
:100090005F0100085F0100085F0100085F010008C0
:1000A0005F0100084D0E00085F0100085F010008B5
:1000B000750E00085F0100085F0100085F0100087D
:1000C0005F0100085F0100085F0100085F01000890
:1000D0005F010008051000085F0100085F010008CB
:1000E0005F0100085F0100085F0100085F01000870
:1000F0005F0100085F0100085F0100085F01000860
:100100005F0100085F0100085F0100085F0100084F
:100110005F0100085F0100085F0100085F0100083F
:100120005F0100085F0100085F0100085F0100082F
:10013000DFF80CD000F09EF8004800472D180008AA
:10014000A00700200648804706480047FEE7FEE774
:10015000FEE7FEE7FEE7FEE7FEE7FEE7FEE7FEE777
:10016000ED0D000831010008D2B201E000F8012BCA
:10017000491EFBD270470022F6E710B513460A4627
:1001800004461946FFF7F0FF204610BD421E12F844
:10019000013F002BFBD111F8013B02F8013B002B82
:1001A000F9D1704730B505462A460B4612F8010BC7
:1001B00013F8014B08B1A042F8D01CB1002802D0BE
:1001C0006D1CF1E7284630BDCAB2401E10F8011F71
:1001D0008A4202D00029F9D100207047421C10F851
:1001E000011B0029FBD1801A704710B5044600E0BE
:1001F000401C0378002BFBD100E0401C521E04D3AE
:1002000011F8013B0370002BF7D10021017020464B
:1002100010BD2DE9F05F0546002092469B468846BA
:100220000646814640241BE0284641464746224672
:1002300000F041F853465A46C01A914110D3114676
:100240001846224600F028F82D1A67EB01084F46A1
:1002500022460120002100F01FF817EB00094E4153
:10026000201EA4F10104DFDC484631462A464346FD
:10027000BDE8F09F064C074D06E0E06840F0010342
:1002800094E8070098471034AC42F6D3FFF754FFC8
:100290001C1A00083C1A0008202A04DB203A00FA45
:1002A00002F1002070479140C2F1200320FA03F3CD
:1002B000194390407047202A04DB203A21FA02F0CB
:1002C0000021704721FA02F3D040C2F12002914090
:1002D00008431946704700BFFEE7000010B508E06C
:1002E00003E042F2107001F066FA00F07BFB002898
:1002F000F7D1024800680028F2D010BD2400002089
:10030000704710B50446207B012802D1206801F017
:1003100065FA002020606060A060207310BD70B599
:1003200004460E460025206898B901202073304607
:1003300001F0EAFA20602068E0B100206060A66069
:1003400003E00020216848556D1CA068A842F8D839
:1003500010E00220207303E00020216848556D1C46
:10036000A068A842F8D800206060A068B04201D21E
:100370000020206070BD00002DE9F04780468946CE
:1003800017461C464046FFF729FFC5B24846FFF70F
:1003900025FFC6B238212046FFF7C1FF206810B9FB
:1003A0000120BDE8F0871020216808706068401CBB
:1003B000606005F10D003044216848706068401CA1
:1003C000606000202168887003202168C870606820
:1003D000801C60602168081D032221A1FFF705FF32
:1003E0006068C01C606001202168C8716068401CA2
:1003F00060604020216808726068401C6060380AB4
:100400002168487221688F726068801C60600020DB
:100410002168C87221680D736068801C6060216863
:1004200001F10D002A464146FFF7DFFE60682844CF
:100430006060002105F10D0022681154401C226803
:1004400016546068801C606021680F31481932467C
:100450004946FFF7CAFE6068304460600020A0E7AC
:100460004544500010B5044602212046FFF757FFCF
:10047000206808B9012010BDC0216268501C60606E
:100480002068815400216268501C6060206881549B
:10049000A28891B2206800F0B7F90020EBE72DE9BF
:1004A000F84F81460D4617461E460A9C00200090D4
:1004B0004846FFF793FE00F0FF08022E03D117B95C
:1004C0000120BDE8F88F022E08D13846FFF786FEDE
:1004D000824651462046FFF722FF04E005F118014D
:1004E0002046FFF71CFF206808B90220E9E78021B9
:1004F0006268501C606020688154B9F1000F40D0E0
:10050000022E07D13846FFF769FE0C30284400B2AE
:10051000009004E005F10800404400B20090A1887A
:100520008AB22068009900F0A5FF61680844606005
:10053000C0216268501C606020688154002162689C
:10054000501C6060206881546168481C60602068AD
:1005500000F80180D4E90012881842464946FFF7A6
:1005600044FE60684044606055216268501C6060D1
:1005700020688154AA216268501C60602068815400
:1005800027E0022E07D13846FFF728FE0A3028441C
:1005900000B2009002E0A81D00B20090A1888AB2CB
:1005A0002068009900F066FF61680844606040219F
:1005B0006268501C60602068815455216268501C3C
:1005C000606020688154AA216268501C60602068C5
:1005D00081546168481C606020684654022E3AD1FC
:1005E0003846FFF7FBFD00F0FF0A4FF0000B00213B
:1005F0006268501C6060206881546168481C6060BB
:10060000206800F801A00AE017F80B106268501C7F
:100610006060206881540BF1010000F0FF0BD345AE
:10062000F2DB290E6268501C606020688154C5F3BB
:1006300007416268501C606020688154C5F307213F
:100640006268501C6060206881546268501C606061
:10065000206885540BE0C5F307216268501C606078
:10066000206881546268501C6060206885540020B6
:1006700027E70146C87870470146087870470000B0
:1006800010B501201749087042F2107216A117A088
:1006900000F0FEFA42F2107213A116A000F0F8FA70
:1006A00042F2107210A117A000F0F2FA42F210729A
:1006B0000DA117A000F0ECFA42F210720AA11CA0E2
:1006C00000F0E6FA42F2107207A125A000F0E0FA6D
:1006D00042F2107226A127A000F0DAFA00200149A8
:1006E000087010BD040000204F4B000041540D0A5B
:1006F0000000000041542B43574D4F44453D330DFE
:100700000A00000041542B5253540D0A000000000F
:1007100041542B43574A41503D22494354222C22F5
:1007200069637465616D32303137220D0A00000053
:1007300041542B43495053544152543D2254435049
:10074000222C226A6A66616564702E68656465762B
:100750006963652E636F6D222C3837360D0A0000F1
:1007600041542B4349504D4F44453D310D0A000043
:100770003E00000041542B43495053454E440D0A5E
:100780000000000008B50121042000F0F5F9102058
:100790008DF803008002ADF8000003208DF8020000
:1007A0006946044800F052F84FF48041014800F0D7
:1007B000DAF808BD0008014070B50546002400BF06
:1007C00000F02AF880B90DA10E48FFF7EBFC0446B3
:1007D00054B13A212046FFF7F7FC044614B1641CDB
:1007E000204670BD0020FCE7322000F0E4FF281E08
:1007F000A5F101018DB2E3D100BFF2E74950442CCD
:10080000000000004400002070B504460D46294653
:10081000204600F011FE70BD0A48008808B901208A
:1008200070470848008808490988884203D1002099
:1008300004490880F4E70348008803490880012040
:10084000EEE7000006000020080000202DE9F0413E
:10085000024600250026002000230024002791F8EE
:1008600003C00CF00F0591F803C00CF0100CBCF1A4
:10087000000F03D091F802C04CEA050591F800C0C2
:10088000BCF1000F31D0146800202BE04FF0010CB8
:100890000CFA00F3B1F800C00CEA03069E4220D126
:1008A00083004FF00F0C0CFA03F7BC4305FA03FC6E
:1008B0004CEA040491F803C0BCF1280F06D14FF0B4
:1008C000010C0CFA00FCC2F814C00AE091F803C055
:1008D000BCF1480F05D14FF0010C0CFA00FCC2F836
:1008E00010C0401C0828D1D31460B1F800C0BCF17E
:1008F000FF0F34DD546800202EE000F1080C4FF0AB
:10090000010808FA0CF3B1F800C00CEA03069E4295
:1009100021D183004FF00F0C0CFA03F7BC4305FA0A
:1009200003FC4CEA040491F803C0BCF1280F05D184
:1009300000F1080C08FA0CF8C2F8148091F803C012
:10094000BCF1480F07D100F1080C4FF0010808FA7C
:100950000CF8C2F81080401C0828CED35460BDE8C3
:10096000F081416170470161704700BFFEE700BF41
:10097000FEE7704770B5002100230F22C47804B34E
:10098000154C246804F4E064C4F5E064210AC1F164
:100990000403CA40447804FA03F1847814402143E4
:1009A00009010E4C0678A155047804F01F050124B6
:1009B000AC4005786D11AD0005F1E025C5F80041AA
:1009C00009E0047804F01F050124AC40044D0678CA
:1009D000761145F8264070BD0CED00E000E400E023
:1009E00080E100E07FB5002000900190029003902C
:1009F00001256B4640F6C41210A118A0FFF7BCFCFD
:100A0000B0B9019A91B20098FFF7FEFEFA20FFF705
:100A1000D3FE044644B12046FFF72EFE202803D122
:100A20002046FFF726FE00BF6846FFF76AFC002558
:100A300015B1012004B070BD0020FBE74C5A4459A9
:100A4000574A4A6B5130613457613162753D634793
:100A5000324952753357733D000000003330303255
:100A600037313532000000007FB504460D460020C6
:100A700000900190029003900FA000882080002039
:100A800000900190029003902A460CA1684600F065
:100A900009FD69462046FFF779FB0BA12046FFF7C9
:100AA00075FB002000900190029003902046FFF714
:100AB00095FBC0B204B070BD7B000000227465736A
:100AC00074223A25640000007D00000070B5A6B0D5
:100AD0000646002022902390249025900024002593
:100AE000802102A8FFF747FBC8211548FFF743FB09
:100AF000002014490860314602A8FFF7B5FF0446FC
:100B0000E4B122A803230022214600900EA0FFF7A3
:100B1000C6FC98B908E002A8415D239A501C2390B6
:100B200022988154681C05B2A542F4DB239A91B245
:100B30002298FFF769FE22A8FFF7E3FB26B070BDFD
:100B4000C4000020280000203330303237313532E5
:100B5000000000007047000029B1064A12690243F4
:100B6000044B1A6104E0034A12698243014B1A6183
:100B7000704700000010024029B1064A9269024302
:100B8000044B9A6104E0034A92698243014B9A61E3
:100B9000704700000010024029B1064AD2680243A3
:100BA000044BDA6004E0034AD2688243014BDA6006
:100BB000704700000010024030B5002100220024E0
:100BC00000232D4D6D6805F00C0121B1042905D0DD
:100BD000082923D105E0294D056022E0274D056055
:100BE0001FE0254D6D6805F47012234D6D6805F406
:100BF0008034022505EB92421CB9214D5543056016
:100C00000BE01D4D6D6805F400351DB11C4D5543BD
:100C1000056002E0194D5543056002E0174D05607F
:100C200000BF00BF144D6D6805F0F0010909154DB6
:100C30006B5C0568DD4045600F4D6D6805F4E06153
:100C4000090A104D6B5C4568DD4085600A4D6D6892
:100C500005F46051C90A0B4D6B5C4568DD40C56009
:100C6000054D6D6805F44041890B074D6B5CC56807
:100C7000B5FBF3F5056130BD0010024000127A00AB
:100C800000093D000A0000201A0000207047000003
:100C90002DE9F04105460F46144622E0C8211348CD
:100CA000FFF769FA0020124908602846FFF796FA14
:100CB00006463146284600F0BFFB204600F07BFD8B
:100CC0000C480068C0430C49C1F8A0010B480068FB
:100CD000012803D100200949086003E0642000F0E6
:100CE0006AFDDBE700BFBDE8F0810000C400002022
:100CF00028000020A0012142000021422C000020F9
:100D000010B500F001F810BD0CB500200190009066
:100D10003348006840F480303149086000BF3048F3
:100D2000006800F4003000900198401C0190009889
:100D300018B90198B0F5A06FF1D12948006800F406
:100D4000003010B10120009001E0002000900098D8
:100D5000012843D12348006840F010002149086071
:100D60000846006820F0030008600846006840F06C
:100D7000020008601A4840681949486008464068FF
:100D800048600846406840F4806048600846406813
:100D900020F47C1048600846406840F4E810486041
:100DA0000846006840F08070086000BF0C4800688A
:100DB00000F000700028F9D00948406820F00300D6
:100DC000074948600846406840F00200486000BF9C
:100DD0000348406800F00C000828F9D10CBD000061
:100DE00000100240002002407047000010B5134878
:100DF000006840F001001149086008464068104949
:100E000008400E494860084600680E4908400B49F2
:100E100008600846006820F48020086008464068A2
:100E200020F4FE0048604FF41F008860FFF768FF61
:100E30004FF000600449086010BD0000001002403F
:100E40000000FFF8FFFFF6FE08ED00E010B50121FD
:100E5000064800F033F840B10121044800F01FF8C3
:100E600003480068401C0249086010BD002C014086
:100E70000000002010B50121880700F01FF840B1E4
:100E80000121880700F00BF802480068401C014966
:100E9000086010BD00000020CA4302827047CA43A8
:100EA0000282704721B1028842F00102028004E010
:100EB00002884FF6FE731A400280704730B5024632
:100EC000002000230024158A05EA0103958905EA1C
:100ED000010413B10CB1012000E0002030BD1AB1B3
:100EE00083890B43838102E083898B43838170472D
:100EF000002202881D4B98420ED01D4B98420BD009
:100F0000B0F1804F08D01B4B984205D01A4B984245
:100F100002D01A4B984204D14FF68F731A404B8877
:100F20001A43174B984207D0164B984204D04FF6FD
:100F3000FF431A40CB881A4302808B8883850B8835
:100F400003850A4B98420BD0094B984208D00E4BB0
:100F5000984205D00D4B984202D00D4B984201D1DA
:100F60000B7A03860123838270470000002C014026
:100F7000003401400004004000080040000C004024
:100F800000100040001400400040014000440140B7
:100F9000004801407FB505460C460121C802FFF715
:100FA000EBFD681E80B2ADF80800601E80B2ADF89F
:100FB00004000020ADF80600ADF80A008DF80C0022
:100FC00001A90F48FFF794FF19208DF800000120B8
:100FD0008DF8030000208DF801008DF802006846AE
:100FE000FFF7C8FC01210648FFF756FF0122114612
:100FF0000348FFF774FF01210148FFF753FF7FBD4E
:10100000002C014010B540F225515E4800F04FF928
:1010100000287DD05B4800F005FAC4B25A485B490D
:10102000096844545A480078012824D159A15648E7
:10103000FFF7B8F820B958A15348FFF7B3F850B1FB
:10104000C8215148FFF797F8012054490860002053
:101050004E49086060E04D480068401C4B490860FC
:1010600008460068962857D100200860C8214648E5
:10107000FFF781F850E04648007800284CD14348FB
:101080000068962806D1002040490860C8213E48E3
:10109000FFF771F8012041490860414800780028B5
:1010A00011DD394839490968405C3E493E4A1268B9
:1010B00088543D480068401C3B4908603848007827
:1010C000401E374908703148006803281DDD2F484D
:1010D0000068801E2C49085CB8B92C480068401E86
:1010E000085C90B9084629490968405C00280CDD75
:1010F00014212C48FFF73FF8234824490968405C35
:10110000274908700020284908602048006800E04E
:1011100007E0401C1D49086040F22551194800F0C5
:1011200050F81A480068C01E1749085C202812D1E0
:1011300016480068801E085C02280CD1134800681D
:10114000401E085C38B9084610490968405C10B96F
:101150000120164908600D480068801E0A49085C95
:1011600064280ED109480068401E085C012808D197
:10117000084606490968405C602802D100200B49F6
:10118000086010BD00380140C40000202800002085
:10119000040000204F4B00003E0000002C00002007
:1011A000200000208C0100203800002024000020B6
:1011B00001F40072B2F5007F00D100BFCA43028083
:1011C000704710B50022002340F66A14A14200D1F6
:1011D00000BF0A1201249440A3B2DC43048010BD76
:1011E00021B1828942F40052828104E082894DF665
:1011F000FF731A408281704710B50446204884422C
:1012000009D101218803FFF7C7FC00214FF480407A
:10121000FFF7C2FC32E01B48844209D10121480497
:10122000FFF79AFC00214FF40030FFF795FC25E012
:101230001548844209D101218804FFF78DFC002163
:101240004FF48020FFF788FC18E01048844209D151
:101250000121C804FFF780FC00214FF40020FFF7B4
:101260007BFC0BE00A48844208D101210805FFF706
:1012700073FC00214FF48010FFF76EFC10BD0000DE
:10128000003801400044004000480040004C00404D
:101290000050004002460020B1F5007F00D100BFA1
:1012A00013880B400BB1012000E00020704770B59F
:1012B0000246002400230025002040F66A16B142B1
:1012C00000D100BFC1F3421501F01F03012606FA49
:1012D00003F3012D02D19689334006E0022D02D19D
:1012E000168A334001E0968A33400C12012606FA32
:1012F00004F41688344013B10CB1012000E0002042
:1013000070BDF0B50346002400260025002040F6FD
:101310006A17B94200D100BF1846C1F3421401F068
:101320001F06012707FA06F5012C01D10C3004E055
:10133000022C01D1103000E014301AB107682F439D
:10134000076002E00768AF430760F0BD2DE9F04792
:1013500086B005460E460024A24600BFA1460027DF
:10136000B08900B100BF2F462C8A4CF6FF700440B4
:10137000F08804432C82AC894EF6F3100440B08808
:1013800031890843718908430443AC81AC8A4FF624
:10139000FF400440B0890443AC8201A8FFF70CFC75
:1013A0001F48874202D1DDF810A001E0DDF80CA053
:1013B000A88900F4004040B10AEBCA0000EB0A1013
:1013C00031684900B0FBF1F807E00AEBCA0000EB16
:1013D0000A1031688900B0FBF1F86420B8FBF0F026
:1013E00004012009642101FB1089A88900F4004050
:1013F00040B1322000EBC900B0FBF1F000F0070073
:10140000044308E0322000EB09106421B0FBF1F046
:1014100000F00F0004432C8106B0BDE8F087000007
:101420000038014001468888C0F308007047C1F3C6
:10143000080282807047000070B504460D464021C6
:101440000A48FFF7B5FE00260CE021780748FFF7B1
:10145000EEFF00BF40210548FFF71CFF0128F9D12E
:10146000641C761CAE42F0DB70BD00000038014009
:1014700000BFFEE770B503460024002500BF01F061
:101480007F05C90909B145F080051046561CB2B266
:101490001D54641C09B1052CF1DB501E80B20246BC
:1014A00070BD00000FB4084B10B504A902AA039840
:1014B00000F01CF8044602A9002000F077F920464D
:1014C00010BC5DF814FB0000AD17000802E008C86E
:1014D000121F08C1002AFAD170477047002001E0AE
:1014E00001C1121F002AFBD1704700002DE9FF4FF8
:1014F0008DB09B460F460446002606E025280BD0FB
:101500005A460F999047641C761C20780028F5D124
:1015100011B03046BDE8F08F0025A8460122984959
:1015200000E0054314F8013F203B02FA03F00842B3
:10153000F7D120782E2817D114F8010F45F00405B3
:101540002A280ED06FF02F022078A0F1300109294F
:101550000AD808EB880102EB410100EB0108641C8A
:10156000F2E757F8048B641C20786C280DD004DC5B
:101570004C2812D06A2811D104E074280DD07A28A2
:101580000CD10AE045F4001507E0617845F48015B8
:10159000814202D1641C05F58015641C2278692AF9
:1015A00045D008DC002AB3D0582A69D0632A10D06D
:1015B000642A08D13BE0702A67D0732A13D0752AB9
:1015C0005CD0782A5CD010465A460F999047761C1A
:1015D000D3E017F8040B8DF8000000208DF801000F
:1015E000E946012003E057F8049B4FF0FF306907FC
:1015F0004FF0000501D40AE06D1C45450DDA854227
:10160000FADB19F805100029F6D106E06D1C8542B9
:10161000FCDB19F805100029F8D12E4404E019F874
:10162000010B5A460F9990476D1EF8D2A5E00A208B
:101630000021CDE90801C5F3025002280DD001CFE9
:10164000C117031E71F100030DDA4FF0000CD0EB4F
:101650000C006CEB01012D2308E0FF1D27F00707AC
:10166000F7E80201EDE72B0504D52B238DF8283090
:1016700001233BE0EB0739D02023F7E70A2000E005
:1016800010200021CDE9080107E01020002145F0DD
:101690000405CDE908014FF00808C5F302500228FF
:1016A0000FD001CF00214FF0000A2B071FD5702A61
:1016B0000DD0DDE908C38CF0100C5CEA030C0CD0F3
:1016C00015E0FF1D27F00707F7E80201EBE74022CE
:1016D0008DF828204FF0010A0BE050EA010306D0F4
:1016E00030238DF828308DF8292002239A46582A75
:1016F00004D024A20DF120090B9209E026A2F9E7FB
:10170000DDE90823FEF785FD0B9B9B5C09F8013D95
:1017100050EA0102F4D1ADEB0900203008906807CF
:1017200001D44FF001080899884502DDA8EB0100BB
:1017300000E000208046002506E00AA85A46405DE9
:101740000F9990476D1C761C5545F6DB04E0302060
:101750005A460F999047761CB8F10001A8F101088C
:10176000F5DC05E019F8010B5A460F999047761CF5
:101770000899481E08900029F4DC641CC5E60000A6
:101780000928010030313233343536373839616257
:10179000636465660000000030313233343536371B
:1017A0003839414243444546000000000A68531C52
:1017B0000B601070704700B5034603E04FF47A7079
:1017C00000F005F8181EA3F10103F7D100BD00BF1A
:1017D000011EA0F10100FBD17047000010B50028E8
:1017E00021D0114B0022001F196803E0814203D869
:1017F0000A4649680029F9D152B11368841A9C42FB
:1018000004D1006818441060104602E0506000E007
:10181000186039B102680B1A934203D10B681A445D
:1018200002604968416010BD3C00002086B0002085
:10183000029003900490059001210420FFF79CF989
:101840004FF48070ADF8040003208DF806001020DE
:101850008DF8070001A92448FEF7F8FF4FF4E130A6
:1018600000F088F8FEF78EFFFEF70AFF482141F2EC
:101870008830FFF78FFBFEF731FD33E01B4800682F
:1018800041F28831884205D102A8FEF7EBFD002025
:101890001649086016A11848FEF784FC70B14FF491
:1018A00000711648FFF75DF80120FFF70FF964207B
:1018B000FFF781FF14211048FEF75DFC10A10E48D0
:1018C000FEF770FC70B14FF400710C48FFF74BF855
:1018D0000020FFF7FBF86420FFF76DFF1421064896
:1018E000FEF749FCCAE700000008014000000020A4
:1018F0004F50454E000000008C010020000C0140BC
:10190000434C4F5345000000F0B50B30154D20F00F
:1019100007010024144A0FE003688B420BD38B426B
:1019200005D95E1A43184768C3E9006700E04368B9
:10193000136002C004E0021D10680028ECD12046AC
:10194000002802D1286808B10020F0BD064A0748E7
:101950001060074A121A22F00702C0E90024012091
:101960002860D7E7400000203C000020A4010020B0
:10197000A003002010B586B00446012144F2040003
:10198000FFF7FAF82348FFF737FC4FF40070ADF883
:10199000140003208DF8160018208DF8170005A9F3
:1019A0001D48FEF753FF4FF48060ADF8140004208B
:1019B0008DF8170005A91848FEF748FF25208DF877
:1019C000000003208DF801008DF8020001208DF841
:1019D00003006846FEF7CEFF01940020ADF8080032
:1019E000ADF80A00ADF80C00ADF810000C20ADF811
:1019F0000E0001A90748FFF7A9FC012240F225517A
:101A00000448FFF77EFC01210248FFF7E9FB06B01E
:101A100010BD000000380140000801403C1A0008D9
:101A20000000002044000000CC140008801A0008C8
:101A3000440000205C070000DC14000800000000E7
:101A40000000000000000000000001020304010289
:101A5000030406070809020406080000000000004D
:101A60000000000000000000000000000000000076
:101A70000000000000000000000000000000000066
:0400000508000131BD
:00000001FF
